:100000000C9421110C9452110C9452110C94521115
:100010000C9452110C9452110C9452110C945211D4
:100020000C9452110C9452110C9452110C945211C4
:100030000C9452110C9452110C9452110C945211B4
:100040000C9452110C94254B0C9452110C94521197
:100050000C9452110C9452110C9474C30C9418DC2F
:100060000C9452110C942CDA0C9452110C945211E1
:100070000C9452110C9452110C9452110C94521174
:100080000C942C530C9452110C9452110C94521148
:100090000C9452110C9452110C9452110C94521154
:1000A0000C9452110C9452110C94FE520C94521157
:1000B0000C9452110C9452110C9452110C94D05275
:1000C0000C9452110C9452110C9452110C9480C245
:1000D0000C9457C20C9452110C9452110C9452115E
:1000E0000C945211BB2CB42EED30942FC449C4494A
:1000F00026348E34DA34C449C4491737BB39893AB7
:10010000C449BA3CC449C4490F3EC449C4494841E2
:10011000C74139440846974695DA98DA87DA8BDA88
:1001200091DACFDA9CDAA0DAA6DAAADAAEDAB4DAB1
:10013000B8DABCDACFDAC2DAC6DACADA34DB39DBEB
:100140003EDB48DB52DBCBDB5CDB64DB6CDB76DB92
:1001500080DB8ADB99DBA3DBCBDBADDBB7DBC1DB91
:10016000084AD73B3BCE016E84BCBFFDC12F3D6C1E
:1001700074319ABD56833DDA3D00C77F11BED9E484
:10018000BB4C3E916BAAAABE000000803F05A84C64
:10019000CDB2D44EB93836A9020C50B99186880830
:1001A0003CA6AAAA2ABE000000803F004E414E494C
:1001B0004E495459494E46CDCCCC3D0AD7233C1725
:1001C000B7D13877CC2B329595E6241FB14F0A0072
:1001D0000020410000C84200401C4620BCBE4CCA62
:1001E0001B0E5AAEC59D7400407A10F35A00A072DF
:1001F0004E18090010A5D4E80000E8764817000062
:10020000E40B54020000CA9A3B000000E1F505002F
:100210000080969800000040420F000000A0860178
:10022000000000102700000000E803000000006448
:1002300000000000000A00000000000100000000B3
:10024000002C76D888DC674F0823DFC1DFAE59E188
:10025000B1B796E5E3E453C63AE651997696E8E6F7
:10026000C28426EB898C9B62ED407C6FFCEFBC9CCA
:100270009F40F2BAA56FA5F490055A2AF75C936BDC
:100280006CF9676DC11BFCE0E40D47FEF520E6B597
:1002900000D0ED902E0300943577050080841E0871
:1002A0000000204E0A000000C80C333333330F988F
:1002B0006E12831141EF8D2114893BE65516CFFE56
:1002C000E6DB18D1844B381BF77C1D901DA4BBE4E2
:1002D00024203284725E228100C9F124ECA1E53D24
:1002E00027434F4D4D554E49434154494F4E0044CD
:1002F000525952554E004552524F525300494E46A4
:100300004F004543484F0047322F47332062616416
:1003100020706172616D65746572730A005A207095
:10032000726F6265206F75742E206265640A0047E3
:100330003238205A20466F7262696464656E0A0022
:1003400047323900205A3A200020593A20004265AD
:100350006420583A20004D65736820706F696E7490
:100360002063616E6E6F74206265207265736F6CBE
:100370007665640A00456E642066696C65206C6968
:1003800073740A00426567696E2066696C65206C4B
:100390006973740A002E0A0046696C652862696EEA
:1003A000292064656C657465640044656C657469D6
:1003B0006F6E2862696E29206661696C65640053FE
:1003C00044207072696E74696E672062797465206A
:1003D000004E6F74205344207072696E74696E67AA
:1003E0000A002569730025696D2025697300256958
:1003F000682025696D2025697300256964202569B9
:10040000682025696D202569730025697920256993
:1004100064202569682025696D2025697300507264
:10042000696E742074696D653A200050726F74654E
:10043000637465642050696E0A000203FD02F602CF
:10044000EF02E1026F66660044454255473A004BB1
:10045000494C4C45442E20004D3131332053006F20
:100460006B002F2F200053657474696E67205472DF
:100470006176656C20416363656C65726174696F58
:100480006E3A200053657474696E67205265747209
:1004900061637420416363656C65726174696F6E3A
:1004A0003A200053657474696E67205072696E74E7
:1004B00020416363656C65726174696F6E3A2000F8
:1004C00053657474696E67205072696E7420616E32
:1004D000642054726176656C20416363656C65725B
:1004E0006174696F6E3A20000001363726FF033CC5
:1004F0003D38FF0E2E303E12FFFF0C0809FFFFFFB4
:100500001A1C18FFFF08440AFF43FFFFFFFFFFFF0D
:10051000206F7574206F662072616E67650A0053E4
:100520006572766F20003A200020536572766F2046
:100530000043290A0061626C656420286D696E20A1
:1005400074656D702000436F6C64206578747275FB
:10055000646573206172652000546F6F206661725C
:100560002066726F6D207265666572656E636520C8
:10057000706F696E740A00207A70726F62655F7ABC
:100580006F66667365743D20007A5F6D696E3A2010
:10059000202D3230207A5F6D61783A202032300091
:1005A0005A204F666673657420004E6F2063617336
:1005B00065206C696768740A004163746976652018
:1005C00045787472756465723A2000556E6B6E6F73
:1005D000776E20636F6D6D616E643A2022004D323C
:1005E00034004D3233202573004D313036205332E4
:1005F0003535004D31303920532569004D313930C2
:1006000020532569004739322045257300473020A3
:100610005A2573004D31303920532569004D313949
:100620003020532569004D323400473238004D34B4
:100630003230205330004D343230205331004731B6
:100640002046313030205A30004731205835302094
:100650005933303020463336303000473120463170
:100660003030205A330047312046313030205A3064
:100670000047312058333030205933303020463352
:100680003630300047312046313030205A33004771
:10069000312046313030205A300047312058333035
:1006A000302059353020463336303000473120462F
:1006B000313030205A330047312046313030205A13
:1006C00030004731205835302059353020463336F8
:1006D00030300047312046313030205A3300473126
:1006E0002046313030205A300047312058313830E0
:1006F00020593138302046333630300047312046DB
:10070000313030205A330047323900473930004702
:10071000323800473238205A3000473238004D38DE
:10072000340047312046323030205A302E300047D6
:1007300032380047393220452573004730205A258A
:1007400073004D31303920532569004D3139302047
:10075000532569004732382058302059300047323D
:1007600038205830205930004D3432302053310079
:100770004D343230205330002020506C616E6E6555
:100780007242756666657242797465733A2000201C
:1007900046726565204D656D6F72793A2000436F32
:1007A0006D70696C65643A204A616E203137203281
:1007B0003032300A00207C20417574686F723A2014
:1007C000456E6465722D3520506C75730A003230A9
:1007D00031392D30392D303400204C61737420555F
:1007E0007064617465643A200056657220312E375A
:1007F000302E3220424C0A004D61726C696E00202E
:10080000536F6674776172652052657365740A0070
:10081000205761746368646F672052657365740A5A
:10082000002042726F776E206F7574205265736579
:10083000740A002045787465726E616C205265738D
:1008400065740A00506F77657255700A00737461A1
:1008500072740A006572726F722077726974696EC1
:100860006720746F2066696C650A00205A3A002080
:10087000593A0020583A00656E6473746F707320A3
:100880006869743A2000446F6E6520736176696E02
:10089000672066696C652E0A004D32390024F4D455
:1008A0003050C38E20C2A24017828B7011127A91F1
:1008B0000D816CD90AA861E108C7586607615143E8
:1008C000061E4B5D05C145A7041A411104093D9858
:1008D00003713931034036DB0265339102D4305461
:1008E00002802E1D02632CEE01752AC501B028A0DE
:1008F00001102781018F2564012B244B01E0223454
:1009000001AC211F018D200D01801FFC00841EED14
:1009100000971DDF00B81CD200E61BC600201BBCE0
:1009200000641AB200B219A8000A19A0006A189946
:1009300000D117910040178B00B516840031167E48
:1009400000B31579003A157300C7146F0058146A84
:1009500000EE1366008813630025135E00C7125B68
:10096000006C12570015125400C111510070114F44
:100970000021114B00D61049008D1047004610444D
:100980000002104200C00F4000800F3E00420F3CAA
:1009900000060F3B00CB0E3800930E37005C0E357F
:1009A00000270E3400F30D3200C10D3100900D30E0
:1009B00000600D2E00320D2D00050D2C00D90C2BE2
:1009C00000AE0C2900850C29005C0C2700350C2793
:1009D000000E0C2600E80B2400C40B2400A00B23FF
:1009E000007D0B23005A0B2100390B2100180B202E
:1009F00000F80A1F00D90A1E00BB0A1E009D0A1D2E
:100A000000800A1D00630A1C00470A1B002C0A1BF9
:100A100000110A1A00F7091A00DD091900C40919A2
:100A200000AB091900920917007B09180063091728
:100A3000004C09160036091600200916000A09158F
:100A400000F5081500E0081400CC081400B80814DC
:100A500000A4081400900813007D0812006B08130E
:100A6000005808120046081200340811002308112B
:100A7000001208110001081100F0071000E0071033
:100A800000D0071000C0071000B0070F00A107102A
:100A90000091070E0083070F0074070F0065070E13
:100AA0000057070E0049070E003B070D002E070EEA
:100AB0000020070D0013070D0006070D00F9060CB6
:100AC00000ED060D00E0060C00D4060C00C8060C74
:100AD00000BC060C00B0060C00A4060B0099060C26
:100AE000008D060B0082060B0077060B006C060BD0
:100AF0000061060A0057060B004C060A0042060A6F
:100B00000038060A002E060A0024060A001A060A01
:100B1000001006090007060A00FD050900F4050992
:100B200000EB050900E2050900D9050900D0050917
:100B300000C7050900BE050900B5050800AD050898
:100B400000A50509009C050800940508008C05080F
:100B500000840508007C050800740508006C050782
:100B600000650508005D050700560508004E0507ED
:100B70000047050700400508003805070031050754
:100B8000002A050700230507001C050600160507B7
:100B9000000F0507000805060002050700FB040614
:100BA00000F5040700EE040600E8040600E204076E
:100BB00000DB040600D5040600CF040600C90406C5
:100BC00000C3040600BD040600B7040600B1040516
:100BD00000AC040600A6040600A00405009B040661
:100BE0000095040500900406008A040500850405AC
:100BF00000800406007A04050075040500700405F1
:100C0000006B04050066040500610405005C040532
:100C10000057040500520405004D04050048040572
:100C200000430405003E0404003A040500350405B1
:100C300000300404002C04050027040400230405EC
:100C4000001E0404001A0404001604050011040424
:100C5000000D040400090405000404040000040459
:100C600000FC030400F8030400F4030400F0030490
:100C700000EC030400E8030400E4030400E00304C0
:100C800000DC030400D8030400D4030400D00304F0
:100C900000CC030400C8030300C503030024F404CC
:100CA000D9201BC40C5C0E9804C4095F026507714F
:100CB00001F405F900FB04B30048048700C103698F
:100CC000005803550003034500BE023A0084023178
:100CD0000053022A002902250004022000E4011C1E
:100CE00000C8011900AF0117009801140084011316
:100CF00000710110006101100051010E0043010D4F
:100D00000036010B002B010B0020010B001501091F
:100D1000000C01090003010800FB000800F30008B3
:100D200000EB000700E4000600DE000600D8000625
:100D300000D2000600CC000500C7000500C2000577
:100D400000BD000400B9000400B5000400B10004B7
:100D500000AD000400A9000400A5000300A20003E8
:100D6000009F0004009B0003009800030095000210
:100D70000093000300900003008D0002008B00032D
:100D80000088000200860002008400030081000247
:100D9000007F0002007D0002007B0002007900025B
:100DA000007700010076000200740002007200016A
:100DB00000710002006F0002006D0001006C000273
:100DC000006A00010069000200670001006600017E
:100DD0000065000100640002006200010061000182
:100DE00000600001005F0002005D0001005C000186
:100DF000005B0001005A0001005900010058000189
:100E00000057000100560001005500010054000188
:100E10000053000000530001005200010051000186
:100E200000500001004F0001004E0000004E000184
:100E3000004D0001004C0001004B0000004B000180
:100E4000004A00010049000100480000004800017C
:100E50000047000100460000004600010045000078
:100E60000045000100440001004300000043000170
:100E7000004200000042000100410000004100016A
:100E800000400001003F0000003F0001003E000064
:100E9000003E0001003D0000003D0001003C00005C
:100EA000003C0000003C0001003B0000003B000152
:100EB000003A0000003A000100390000003900014A
:100EC0000038000000380000003800010037000042
:100ED0000037000100360000003600000036000137
:100EE000003500000035000000350001003400002E
:100EF0000034000000340001003300000033000023
:100F00000033000100320000003200000032000116
:100F1000003100000031000000310001003000000D
:100F20000030000000300001002F0000002F000002
:100F3000002F0000002F0001002E0000002E0000F6
:100F4000002E0001002D0000002D0000002D0000EB
:100F5000002D0001002C0000002C0000002C0000DF
:100F6000002C0001002B0000002B0000002B0000D3
:100F7000002B0001002A0000002A0000002A0000C7
:100F8000002A0001002900000029000000290000BB
:100F900000290000002900010028000000280000AE
:100FA00000280000002800000028000100270000A1
:100FB0000027000000270000002700000027000194
:100FC0000026000000260000002600000026000089
:100FD000002600010025000000250000002500007B
:100FE000002500000025000000250001002400006D
:100FF0000024000000240000002400000024000160
:101000000023000000230000002300000023000054
:101010000023000000230000002300010022000044
:101020000022000000220000002200000022000038
:10103000002200010021000000210000002100002A
:10104000002100000021000000210000002100011B
:101050000020000000200000002000000020000010
:1010600000200000002000000020000000200001FF
:10107000001F0000001F0000001F0000001F0000F4
:10108000001F0000001F0000001F0001001E0000E4
:10109000001E0000001E0000001E0000004D38343D
:1010A00020582059205A20450047302046333630FA
:1010B00030205831383020593138300042696C695D
:1010C0006E656172204C6576656C696E672047724B
:1010D00069643A0A0020706F736974696F6E206FDB
:1010E0007574206F662072616E67652E0A003F502E
:1010F000726F626520002066697273740A005A007C
:1011000059005800486F6D65200052756E6E696E0B
:101110006720696E204452592D52554E206D6F64E0
:10112000650A00473239204175746F20426564209A
:101130004C6576656C696E670A0028422961636BAD
:1011400000284629726F6E740028522969676874F6
:1011500000284C29656674003F2856296572626F25
:101160007365206C6576656C20697320696D706CA1
:1011700061757369626C652028302D34292E0A0050
:10118000426164205A2076616C75650A004E6F20BA
:1011900062696C696E65617220677269640A0046F3
:1011A000696C652064656C657465643A0044656CBF
:1011B0006574696F6E206661696C65642C20466990
:1011C0006C653A20006F70656E206661696C6564BD
:1011D0002C2046696C653A2000202F002042403ABE
:1011E0000020403A00473238205830205930002043
:1011F000573A004732382058302059300020573AAB
:1012000000205A3A0020593A0020436F756E74202E
:10121000583A0020453A00205A3A0020593A0058DE
:101220003A002E0A006F70656E206661696C656415
:101230002C2046696C653A200057726974696E67A4
:1012400020746F2066696C653A2000534420636106
:101250007264206F6B0A006F70656E526F6F74203E
:101260006661696C65640A00766F6C756D652E69E0
:101270006E6974206661696C65640A004572726FFC
:10128000723A00534420696E6974206661696C0A81
:10129000004D3234004D3233202573006175746F78
:1012A00025692E6700656E7175657565696E6720C5
:1012B00022006563686F3A004B494C4C45442E2030
:1012C000005072696E7465722073746F707065641B
:1012D0002064756520746F206572726F72732E20A2
:1012E00046697820746865206572726F7220616E3D
:1012F0006420757365204D39393920746F2072650B
:1013000073746172742E202854656D7065726174F7
:101310007572652069732072657365742E2053653C
:1013200074206974206166746572207265737461DB
:101330007274696E67290A004E6F204C696E6520D1
:101340004E756D62657220776974682063686563A5
:101350006B73756D2C204C617374204C696E653A0B
:1013600020004E6F20436865636B73756D2077694D
:101370007468206C696E65206E756D6265722C20D4
:101380004C617374204C696E653A20006368656334
:101390006B73756D206D69736D617463682C204C7F
:1013A000617374204C696E653A20004C696E65204B
:1013B0004E756D626572206973206E6F74204C618A
:1013C0007374204C696E65204E756D6265722B31A9
:1013D0002C204C617374204C696E653A20004D31AD
:1013E0003130004D3331004D383420582059205AC7
:1013F00020450053442072656164206572726F72EB
:101400000A00446F6E65207072696E74696E6720A1
:1014100066696C650A0020496E76616C69642065B6
:10142000787472756465722000000000000000008E
:1014300000000000000000B4430000B4430000CDF1
:10144000435072696E7465722073746F7070656456
:101450002064756520746F206572726F72732E2020
:1014600046697820746865206572726F7220616EBB
:101470006420757365204D39393920746F20726589
:1014800073746172742E202854656D706572617476
:101490007572652069732072657365742E205365BB
:1014A000742069742061667465722072657374615A
:1014B0007274696E67290A0053544F502063616C3F
:1014C0006C65642062656361757365206F66204298
:1014D0004C546F756368206572726F72202D207294
:1014E0006573746172742077697468204D39393975
:1014F0000A0020746F6F206C6F6E672065787472BD
:101500007573696F6E2070726576656E7465640AB6
:101510000020636F6C6420657874727573696F6EF8
:101520002070726576656E7465640A0020204D38FF
:101530003531205A005A2D50726F6265204F666611
:1015400073657420286D6D293A0A002044002049F3
:101550000020204D33303120500050494420736525
:101560007474696E67733A0A00205A0020204D3463
:1015700032302053004175746F20426564204C6501
:1015800076656C696E673A0A00205A00205900207F
:10159000204D323036205800486F6D65206F6666EA
:1015A0007365743A0A00204500205A002059002033
:1015B000580020420020540020204D323035205366
:1015C00000416476616E6365643A20533C6D696ED8
:1015D0005F66656564726174653E20543C6D696E3A
:1015E0005F74726176656C5F66656564726174656F
:1015F0003E20423C6D696E5F7365676D656E745F1A
:1016000074696D655F6D733E20583C6D61785F78DD
:10161000795F6A65726B3E205A3C6D61785F7A5FD4
:101620006A65726B3E20453C6D61785F655F6A65F7
:10163000726B3E0A0020540020520020204D3230B0
:1016400034205000416363656C65726174696F6E2C
:101650002028756E6974732F7332293A20503C70BC
:1016600072696E745F616363656C3E20523C7265A3
:1016700074726163745F616363656C3E20543C7493
:10168000726176656C5F616363656C3E0A0020453C
:1016900000205A0020590020204D323031205800BF
:1016A0004D6178696D756D20416363656C6572612C
:1016B00074696F6E2028756E6974732F7332293ABE
:1016C0000A00204500205A0020590020204D3230C9
:1016D000332058004D6178696D756D2066656564CD
:1016E00072617465732028756E6974732F73293A5B
:1016F0000A00204500205A0020590020204D393290
:1017000020580053746570732070657220756E697F
:10171000743A0A0020204D3230302044300A002034
:10172000204D3230302044002044697361626C6582
:10173000640A0046696C616D656E7420736574742B
:10174000696E67733A0020204D3134392043203BC5
:1017500020556E69747320696E2043656C736975DA
:10176000730A002020473231202020203B20556E74
:1017700069747320696E206D6D0A007A5F6D696E01
:101780003A2000795F6D61783A2000785F6D61786A
:101790003A20005265706F7274696E6720656E64DE
:1017A00073746F70207374617475730A0043617091
:1017B0003A454D455247454E43595F504152534576
:1017C000523A300A004361703A434153455F4C49F5
:1017D0004748545F4252494748544E4553533A3064
:1017E0000A004361703A544F47474C455F4C4947A4
:1017F0004854533A300A004361703A534F465457A5
:101800004152455F504F5745523A300A004361708C
:101810003A4C4556454C494E475F444154413A3154
:101820000A004361703A5A5F50524F42453A310ABA
:10183000004361703A4155544F4C4556454C3A313E
:101840000A004361703A5052494E545F4A4F423A3F
:10185000310A004361703A50524F47524553533A50
:10186000300A004361703A4155544F5245504F522F
:10187000545F54454D503A310A004361703A454532
:1018800050524F4D3A310A004649524D5741524548
:101890005F4E414D453A4D61726C696E20566572DE
:1018A00020312E37302E3220424C20284372656181
:1018B0006C69747933442920534F555243455F4333
:1018C0004F44455F55524C3A68747470733A2F2FE9
:1018D0006769746875622E636F6D2F4D61726C69F4
:1018E0006E4669726D776172652F4D61726C696EBB
:1018F0002050524F544F434F4C5F56455253494F1F
:101900004E3A312E30204D414348494E455F54599F
:1019100050453A456E6465722D3520506C757320C4
:1019200045585452554445525F434F554E543A31F1
:1019300020555549443A63656465326132662D34F9
:101940003161322D343734382D396231322D6335DF
:10195000356336326633363766660A00205A002011
:101960005900580020204D61783A2000205A00206C
:101970005900580020204D696E3A20004F6E20001B
:101980004F666600536F667420656E6473746F7083
:10199000733A200020643A0020693A0020703A002F
:1019A00023646566696E65202044454641554C5464
:1019B0005F4B64200023646566696E6520204445A2
:1019C0004641554C545F4B69200023646566696E3F
:1019D00065202044454641554C545F4B70200050D3
:1019E0004944204175746F74756E652066696E692F
:1019F00073686564212050757420746865206C617B
:101A00007374204B702C204B6920616E64204B64F2
:101A100020636F6E7374616E74732066726F6D20D5
:101A200062656C6F7720696E746F20436F6E6669B4
:101A30006775726174696F6E2E680A0050494420A0
:101A40004175746F74756E65206661696C6564219B
:101A50002074696D656F75740A00504944204175A2
:101A6000746F74756E65206661696C6564212054BD
:101A7000656D706572617475726520746F6F206832
:101A80006967680A00204B643A2000204B693A20BD
:101A900000204B703A20000A20436C617373696325
:101AA00020504944200A002054753A2000204B75EC
:101AB0003A2000206D61783A2000206D696E3A204E
:101AC0000020643A200020626961733A20004F666A
:101AD000660A00466164652048656967687420008D
:101AE000426564204C6576656C696E6720004661CE
:101AF000696C656420746F20656E61626C6520425C
:101B00006564204C6576656C696E670A004D657387
:101B10006820706F696E742063616E6E6F742062EE
:101B200065207265736F6C7665640A004D343231DE
:101B300020696E636F727265637420706172616D8B
:101B4000657465722075736167650A000000220084
:101B5000250028002B002E00310034000201000077
:101B6000050108010B0100002000230026002900C8
:101B70002C002F00320000010000030106010901C2
:101B800005050505070508080808020202020A0AF9
:101B90000808040404040101010101010101030317
:101BA000030303030303040707070C0C0C0C0C0CC2
:101BB0000C0C0202020206060606060606060B0BBF
:101BC0000B0B0B0B0B0B0102102020080810204000
:101BD00010204080020102010804020101020408F1
:101BE000102040808040201008040201800402017F
:101BF00080402010080402010804020101020408C8
:101C000010204080010204081020408000000A0BD0
:101C100002090C0D0E08070304010000000000007B
:101C200000000000000000000000000000000000B4
:101C30000000000000000000121110000000000071
:101C40000000000000000000000000000000000094
:101C5000000050726F62696E67206661696C65642E
:101C60000A00205A3A200020593A20004265642098
:101C7000583A2000290A002062797465733B20637A
:101C80007263200053657474696E67732053746FB8
:101C9000726564202800202863616C63756C617430
:101CA000656429210A0020213D2000454550524FFE
:101CB0004D20435243206D69736D61746368202D1C
:101CC000202873746F726564292000290A0020623D
:101CD000797465733B2063726320002073746F72A4
:101CE00065642073657474696E67732072657472BD
:101CF0006965766564202800204D61726C696E3DCF
:101D0000563431290A0028454550524F4D3D004573
:101D10004550524F4D2076657273696F6E206D6924
:101D2000736D61746368200048617264636F6465F9
:101D3000642044656661756C742053657474696EC3
:101D40006773204C6F616465640A00F4010000F45D
:101D500001000064000000E803000000009643005A
:101D60000096430000A0400000C8410000A04200CF
:101D700000A042000048440000BA425072696E74EC
:101D800065722068616C7465642E206B696C6C28C8
:101D9000292063616C6C6564210A000000B4430073
:101DA00000B4430000000000004842000048420028
:101DB000008040000000005761726E696E673A2033
:101DC000486F6D696E672042756D70204469766951
:101DD000736F72203C20310A000202040000A04010
:101DE0000000A040000000400000B4430000B443E5
:101DF0000000CD430101FF62696E004D3131372093
:101E0000494E56414C494420444154412E004739E3
:101E100032205A2573204525730062696E00526591
:101E200073656E643A20006F6B0020746F6F206CD6
:101E30006F6E6720657874727573696F6E2070724B
:101E40006576656E7465640A0020636F6C64206556
:101E50007874727573696F6E2070726576656E74D2
:101E600065640A00627573793A2070617573656400
:101E700020666F7220696E7075740A0062757379DE
:101E80003A2070617573656420666F7220757365A2
:101E9000720A00627573793A2070726F63657373AA
:101EA000696E670A004B494C4C45442E20004B4953
:101EB0004C4C20636175736564206279204B494CFA
:101EC0004C20627574746F6E2F70696E0A004B49F6
:101ED0004C4C45442E20004B494C4C20636175739B
:101EE000656420627920746F6F206D756368206966
:101EF0006E6163746976652074696D65202D206359
:101F0000757272656E7420636F6D6D616E643A20D8
:101F1000007C3C3E5E2B3D3F2F5B5D3B2C2A225CD0
:101F20000070012C0190012701B0012201C0011DA8
:101F300001F00118011002130130020E01600209C4
:101F40000190020401C002FF000003FA004003F503
:101F5000008003F000D003EB002004E6007004E1F1
:101F600000E004DC004005D700C005D2004006CDEB
:101F700000D006C8008007C3003008BE00F008B9D2
:101F800000C009B400B00AAF00B00BAA00D00CA585
:101F900000000EA000500F9B00C010960050129140
:101FA0000000148C00C0158700B0178200B0197DA6
:101FB00000D01B7800001E730040206E0090226944
:101FC00000F024640040275F0090295A00E02B5560
:101FD00000102E500020304B0010324600E03341FC
:101FE0000090353C001037370070383200A0392D92
:101FF00000B03A2800A03B2300603C1E00103D19B1
:1020000000903D1400103E0F00703E0A00C03E05D7
:1020100000003F0000403FFBFF803FF6FFC03FF164
:10202000FF544845524D414C2052554E415741595D
:1020300000546865726D616C2052756E61776179CC
:102040000057726974696E6720746F2066696C65E9
:102050003A20006F70656E206661696C65642C20A3
:1020600046696C653A20006F70656E206661696C28
:1020700065642C2046696C653A200046696C6520D1
:1020800073656C65637465640A002053697A653A08
:10209000200046696C65206F70656E65643A2000AB
:1020A0006F70656E206661696C65642C2046696C92
:1020B000653A20002066696C653A20004E6F7720F3
:1020C000002220706F73002220706172656E743A76
:1020D0002200535542524F5554494E452043414CDE
:1020E0004C207461726765743A22004B494C4C4530
:1020F000442E2000747279696E6720746F206361CA
:102100006C6C207375622D67636F64652066696C03
:102110006573207769746820746F6F206D616E79C4
:10212000206C6576656C732E204D4158206C657669
:10213000656C2069733A0043616E6E6F74206F7036
:10214000656E2073756264697220004572726F72E9
:102150002077726974696E6720746F20454550520C
:102160004F4D210A006265640A002C207379737454
:10217000656D2073746F70706564212048656174AB
:1021800065725F49443A20004572723A204D4158C9
:1021900054454D5020424544004572723A204D410D
:1021A0005854454D50004D415854454D502074727F
:1021B00069676765726564004572723A204D494EE1
:1021C00054454D5020424544004572723A204D49D5
:1021D0004E54454D50004D494E54454D502074725B
:1021E000696767657265640048656174696E672038
:1021F0006661696C65640048656174696E67206634
:1022000061696C65640048656174696E6720666128
:10221000696C65640048656174696E672066616910
:102220006C65640000002100240027002A002D00B6
:102230003000330001010000040107010A0184E6B7
:10224000C9E711241FBECFEFD1E2DEBFCDBF00E052
:102250000CBF15E0A0E0B2E0E2E2FEEE01E00BBF51
:1022600002C007900D92AE36B107D9F72CE1AEE669
:10227000B5E001C01D92A133B207E1F711E1C0E260
:10228000D1E100E006C021970109802FFE010E94E4
:102290004BF6CF31D10780E00807A9F70E9462DC36
:1022A0000C9400F70C9400002F923F924F925F9293
:1022B0006F927F928F929F92AF92BF92CF92DF9256
:1022C000EF92FF920F931F93CF93DF93CDB7DEB7BB
:1022D000CF55D1090FB6F894DEBF0FBECDBF009128
:1022E000331720E6029F800111240F5B194F809164
:1022F000911680FF1AC0E2EBF2E184917F013FEF7B
:10230000E31AF30A811102C0780104C00E9417D9B0
:10231000F701F3CFD7018D917D01882319F00E9439
:1023200017D9F8CF8AE00E9417D981E090E0909306
:10233000581B8093571B10929105109290058FE3C4
:1023400080939B0510929A051092990584E0E8E825
:10235000F5E0DF011D928A95E9F7F80180810F5FB2
:102360001F4F8032D1F38E34C9F4818190ED980FE4
:102370009A3020F08D3211F08B3281F4DF01129609
:102380009D012F5F3F4F8C9180538A3010F4D9010B
:10239000F7CFFD01119680818032D9F3F0935F1B56
:1023A000E0935E1B7F01BFEFEB1AFB0A10816AE22C
:1023B00070E0C7010E9499F6009731F0FC01319757
:1023C00080818032E1F311821D3431F1143521F125
:1023D000173411F1E2EBF2E184918F010F5F1F4F8F
:1023E000882321F00E9417D9F801F6CF60915E1B77
:1023F00070915F1B8BEC95E00E94AD5382E20E94CE
:1024000017D98AE00E9417D91092581B1092571BB7
:102410000E94D8B10C94852AC701FC012081019645
:102420002032D9F320532A30A8F610939B0580E080
:1024300090E06AE03196DF0111972C91022E000C9A
:10244000330B20533109689FA001699F500D11245F
:10245000C901840F951F208120532A3058F390938F
:102460009A0580939905DF0131962C912032D9F39A
:102470001D34D1F48E31910591F03CF487319105F2
:1024800071F08C31910581F40AC08537910564F0B3
:102490008737910524F0803AE3E09E0729F4B09352
:1024A0009105A09390057DC0109291051092900522
:1024B00000915E1BEE24E394F12CFD0131962C91EA
:1024C000222309F46EC02132A9F41D3499F480321C
:1024D000910581F4F0939105E093900563E270E03B
:1024E000CF010E9499F6009711F40C94951EDC011F
:1024F0001C9257C021542A31A0F5AF01FA01308156
:102500004F5F5F4F3032D1F340ED430F4A3040F020
:1025100043ED430F423020F03B3211F00C94AB29D5
:10252000AF01622F70E0DB0133E0B595A7953A95D6
:10253000E1F7A857BA4F2770670102C0CC0CDD1C29
:102540002A95E2F796013C91232B2C9341155105D6
:1025500011F0401B01C040E0DB01A259BA4F4C937F
:102560000AC02091900530919105232B21F4B0935E
:102570009105A0939005208121542A3110F4DF01A8
:102580009CCFDF01AD014F5F5F4F2C9120532A306C
:1025900010F4DA01F7CFFD01119620812032D9F332
:1025A000EECF80919B058D3411F40C94951E8435EB
:1025B00011F40C946A29873409F00CCF2090990506
:1025C00030909A052CE12216310409F485C694F462
:1025D00044E02416310444F452E0251631040CF092
:1025E000FEC037FE2FC010CF84E02816310409F456
:1025F0002EC60ACF9AE22916310411F40C94E31D79
:102600006CF4BDE12B16310411F40C94C01CEEE106
:102610002E16310411F40C94C41CF6CEFBE52F16D3
:10262000310411F40C94481D2CE52216310411F4E8
:102630000C944D1D3AE52316310409F0E5CE1092B5
:102640009805E2CE80916002882309F4DDCE0E94D5
:1026500082540E949AAE8091D71B813021F482E08F
:102660008093D71BD1CE90917712992309F4CCCEC9
:10267000823009F4C9CE8091220690912306893BCD
:102680009105DCF06091220670912306072E000C64
:10269000880B990B0E94B7EC9B01AC016091FC0583
:1026A0007091FD058091FE059091FF050E94B1ECAF
:1026B00087FF03C00E94A8ABE5CF1092391781E0D5
:1026C00080933C0280EA9FE09093F91B8093F81B73
:1026D0008091D51B882349F182E090E090937E158C
:1026E00080937D1585E08093711512E81093741521
:1026F00084E190E1A0E0B0E08093751590937615A9
:10270000A0937715B09378150E94566661E070E04B
:1027100080E090E00E94D4DB81E09AE590937E1502
:1027200080937D158BE090E028C08EE090E0909340
:102730007E1580937D1585E08093711512E81093C6
:10274000741584E190E1A0E0B0E08093751590935A
:102750007615A0937715B09378150E94566661E0C0
:1027600070E080E090E00E94D4DB81E09AE59093F5
:102770007E1580937D1585E390E09093801580937E
:102780007F1587E0809371151093741584E890E0AD
:10279000A0E0B0E08093751590937615A09377151F
:1027A000B09378150E94566681E080933F1780931E
:1027B000D71B8091C71A9091C81A019739F40E94CB
:1027C0009E6A7093C81A6093C71A04C01092C81A00
:1027D0001092C71A1092C51A1092C61A15CE80917F
:1027E0006002882309F410CE0E94825482E50E9480
:1027F000FBD8882309F43CC10E9495D84B015C01A9
:102800008091D2169091D316A091D416B091D5167E
:102810008CA79DA7AEA7BFA72091D6163091D7163B
:102820004091D8165091D91628AB39AB4AAB5BAB67
:102830008091931A9091941AA091951AB091961A3A
:1028400088AF99AFAAAFBBAF2091971A3091981A71
:102850004091991A50919A1A2CAB3DAB4EAB5FAB9D
:1028600020E030E0A901C501B4010E94B1EC882349
:1028700009F42AC128AD39AD4AAD5BAD6CA57DA583
:102880008EA59FA50E94B1EC81110DC02CA93DA978
:102890004EA95FA968A979A98AA99BA90E94B1EC50
:1028A000882309F411C111E032E02316310409F044
:1028B00010E020E030E0A901C501B4010E94B1ECB4
:1028C000881F8827881F181759F080E090E0A0E83B
:1028D000BFEB28968CAF9DAFAEAFBFAF28970AC0B5
:1028E00020E030E040E85FE328962CAF3DAF4EAFEC
:1028F0005FAF28972CA53DA54EA55FA568AD79AD26
:102900008AAD9BAD0E944AF324966CAF7DAF8EAF2B
:102910009FAF249728A939A94AA95BA96CA97DA9C9
:102920008EA99FA90E944AF36B017C0124962CADCD
:102930003DAD4EAD5FAD2497CA01B9010E9416EDC1
:102940002B013C01A7019601C701B6010E9416EDBB
:102950009B01AC01C301B2010E944BF30E94B7F589
:102960006CAF7DAF8EAF9FAF20E030E040E05FE323
:102970000E9416ED2B013C01A5019401C501B40193
:102980000E9416ED4B015C01A3019201C301B2014B
:102990000E9416ED9B01AC01C501B4010E944AF3EF
:1029A0000E94B7F528962CAD3DAD4EAD5FAD289792
:1029B0000E9416ED4B015C01C701B60190582CAD89
:1029C0003DAD4EAD5FAD0E9427F4A50194010E947C
:1029D00016ED6B017C0128AD39AD4AAD5BAD6CA540
:1029E0007DA58EA59FA50E944BF320E030E040E03E
:1029F0005FE30E9416ED9B01AC01C701B6010E9486
:102A00004BF32CA53DA54EA55FA50E944AF36B0193
:102A10007C012CA93DA94EA95FA968A979A98AA919
:102A20009BA90E944BF320E030E040E05FE30E946E
:102A300016ED2B013C012CAD3DAD4EAD5FAD2496A6
:102A40006CAD7DAD8EAD9FAD24970E9427F4A5019E
:102A500094010E9416ED9B01AC01C301B2010E94DA
:102A60004BF328A939A94AA95BA90E944AF314C0CB
:102A700089E40E94FBD8882329F00E9495D86B0135
:102A80007C0103C0C12CD12C76018AE40E94FBD8C2
:102A90008823E9F00E9495D868AF79AF8AAF9BAFE1
:102AA00020E030E0A901C701B6010E94B1EC81111C
:102AB0001BC020E030E0A90168AD79AD8AAD9BADC7
:102AC0000E94B1EC811110C0ECE7F2E1ADC320E04F
:102AD00030E0A901C701B6010E94B1EC8823A1F33F
:102AE00018AE19AE1AAE1BAED701C601B0588CA7EE
:102AF0009DA7AEA7BFA728AD39AD4AAD5BAD505875
:102B000028AB39AB4AAB5BAB9C01AD01BC01CD013D
:102B10000E9416ED4B015C0128A939A94AA95BA9BD
:102B2000CA01B9010E9416ED9B01AC01C501B401B7
:102B30000E944BF30E94B7F564966CAF7DAF8EAFE9
:102B40009FAF64978091D2169091D316A091D4161E
:102B5000B091D5168CAB9DABAEABBFAB9C01AD01BC
:102B6000C701B6010E944BF328966CAF7DAF8EAFC4
:102B70009FAF28972091D6163091D7164091D8163E
:102B80005091D9162CAF3DAF4EAF5FAF28AD39ADE8
:102B90004AAD5BAD6CAD7DAD8EAD9FAD0E944BF38C
:102BA00068966CAF7DAF8EAF9FAF68978091931A98
:102BB0009091941AA091951AB091961A2C968CAF78
:102BC0009DAFAEAFBFAF2C9728962CAD3DAD4EADAF
:102BD0005FAD2897BC01CD010E944AF36B017C01D7
:102BE0002091971A3091981A4091991A50919A1AF7
:102BF00060962CAF3DAF4EAF5FAF609768962CAD3F
:102C00003DAD4EAD5FAD689760966CAD7DAD8EAD60
:102C10009FAD60970E944AF34B015C018091DA16E8
:102C20009091DB16A091DC16B091DD166C968CAFFE
:102C30009DAFAEAFBFAF6C979C01AD0160919B1A89
:102C400070919C1A80919D1A90919E1A0E944AF34D
:102C500024966CAF7DAF8EAF9FAF2497A7019601EE
:102C60006CA57DA58EA59FA50E9416ED2B013C01AC
:102C7000A501940168A979A98AA99BA90E9416EDCA
:102C80009B01AC01C301B2010E944BF32B013C013B
:102C9000A50194016CA57DA58EA59FA50E9416EDAA
:102CA0004B015C01A701960168A979A98AA99BA992
:102CB0000E9416ED9B01AC01C501B4010E944AF3CC
:102CC000A30192010E94BEF36B017C0120E030E081
:102CD000A9010E94B1EC87FF0AC02BED3FE049EC4F
:102CE00050E4C701B6010E944BF36B017C0192E0F6
:102CF0002916310451F42BED3FE049EC50E4C701B3
:102D0000B6010E944AF36B017C0120E030E0A9018A
:102D1000C701B6010E94B1EC811124C02C962CADE4
:102D20003DAD4EAD5FAD2C976CA97DA98EA99FA935
:102D30000E94B1EC811116C060962CAD3DAD4EAD38
:102D40005FAD60976CAD7DAD8EAD9FAD0E94B1EC77
:102D5000811108C00BEDC02E0FE0D02E09ECE02E43
:102D600000E4F02EA701960164966CAD7DAD8EADAA
:102D70009FAD64970E9416ED9B01AC010E9416ED79
:102D80004B015C0124962CAD3DAD4EAD5FAD24975B
:102D9000CA01B9010E9416ED9B01AC01C501B40145
:102DA0000E944BF30E94B7F54B015C012FE632E124
:102DB00043E85AE30E94B1EC87FD30C2C501B4017B
:102DC0000E94C0F40E9494F47DAF6CAFDB01AB2B8A
:102DD00021F4E1E0F0E0FDAFECAF4090DE16509062
:102DE000DF166090E0167090E1162CAD3DADB90194
:102DF00080E090E00E94B5EC4B015C019B01AC01CE
:102E0000C701B6010E9427F46CAB7DAB8EAB9FABC4
:102E1000A501940124966CAD7DAD8EAD9FAD249738
:102E20000E9427F464966CAF7DAF8EAF9FAF64971E
:102E3000A301920160919F1A7091A01A8091A11A2A
:102E40009091A21A0E944AF3A50194010E9427F4CE
:102E5000A0966CAF7DAF8EAF9FAFA0972CA93DA978
:102E60004EA95FA9CA01B9010E9416ED20E030E029
:102E700040E05FE30E9416ED9B01AC0160E070E072
:102E800080E89FE30E944AF324966CAF7DAF8EAF3B
:102E90009FAF24976C968CAD9DADAEADBFAD6C97DA
:102EA00089879A87AB87BC874D865E866F86788ACE
:102EB00060910B0270910C02072E000C880B990B8D
:102EC0000E94B7EC209134023091350240913602D5
:102ED000509137020E9416ED2AE037ED43E25CE3A1
:102EE0000E9416ED2C966CAF7DAF8EAF9FAF2C97E6
:102EF0000E940CDC9B01AC0128533F4F4F4F5F4FAA
:102F000060962CAF3DAF4EAF5FAF60974CA45DA411
:102F10006EA47FA422242394312C19E1D12E4CAD30
:102F20005DAD4215530509F435C10E9435D30E94A9
:102F30000CDCDC01CB0160962CAD3DAD4EAD5FAD40
:102F40006097821B930BA40BB50BB7FD10C00E94BA
:102F50000CDC9B01AC0128533F4F4F4F5F4F6096F5
:102F60002CAF3DAF4EAF5FAF60970E94A8ABDA9435
:102F7000DD2009F441C028A939A94AA95BA92496F2
:102F80006CAD7DAD8EAD9FAD24970E9416ED4B01CB
:102F90005C019201A3016CA97DA98EA99FA90E9441
:102FA00016EDA50194010E944BF37B018C01920167
:102FB000A30124966CAD7DAD8EAD9FAD24970E948C
:102FC00016ED4B015C0128A939A94AA95BA96CA996
:102FD0007DA98EA99FA90E9416ED9B01AC01C50198
:102FE000B4010E944AF32B013C01C701D80188AB10
:102FF00099ABAAABBBAB4DC0B10180E090E00E94A1
:10300000B5EC2CA93DA94EA95FA90E9416ED4B0174
:103010005C010E9424F46B017C01C501B4010E9493
:10302000ADF54B015C01A70196016CA57DA58EA5B0
:103030009FA50E9416ED2B013C0128AD39AD4AAD8C
:103040005BADC501B4010E9416EDA30192010E947F
:103050004BF32B013C01A50194016CA57DA58EA528
:103060009FA50E9416ED4B015C0128AD39AD4AAD1C
:103070005BADC701B6010E9416ED9B01AC01C50115
:10308000B4010E944AF368AB79AB8AAB9BABA9E170
:10309000DA2E9201A30128966CAD7DAD8EAD9FAD69
:1030A00028970E944BF369837A838B839C8328A99A
:1030B00039A94AA95BA968966CAD7DAD8EAD9FAD6F
:1030C00068970E944BF36D837E838F839887649605
:1030D0002CAD3DAD4EAD5FAD649769857A858B852E
:1030E0009C850E944BF369877A878B879C87A09683
:1030F0002CAD3DAD4EAD5FADA0976D857E858F85C6
:1031000098890E944BF36D877E878F87988B80917B
:103110003302882321F0CE0101960E9408A8C090B6
:10312000930589819A81AB81BC8188A399A3AAA3C5
:10313000BBA38D819E81AF81B8858CA39DA3AEA3D7
:10314000BFA389859A85AB85BC8588A799A7AAA7BF
:10315000BBA7AE01485D5F4FBE016C5D7F4FCE01E6
:1031600080960E9436812C96ECACFDAC0EAD1FAD66
:103170002C979E01235F3F4FAE01485D5F4FBE011C
:103180006C5D7F4FCE0180960E941D743FEF231A25
:10319000330AC5CEC09093058091931A9091941AEA
:1031A000A091951AB091961A88A399A3AAA3BBA33C
:1031B0008091971A9091981AA091991AB0919A1AA1
:1031C0008CA39DA3AEA3BFA380919B1A90919C1A40
:1031D000A0919D1AB0919E1A88A799A7AAA7BBA7EC
:1031E000AE01485D5F4FBE016C5D7F4FCE018096A2
:1031F0000E9436812C96ECACFDAC0EAD1FAD2C9729
:103200002FE93AE1AE01485D5F4FBE016C5D7F4F33
:10321000CE0180960E941D740E94316E0E940DD9CD
:10322000F3C80E9417D9F80184918F010F5F1F4FD7
:103230008111F7CFE7E0F3E084918F010F5F1F4F1B
:10324000882309F4E1C80E9417D9F801F5CF80E579
:103250000E94FBD8882379F080918C0590918D0590
:10326000009749F04AE050E060E070E00E9430EBE7
:103270006B017C0103C0C12CD12C760183E50E9437
:10328000FBD8882361F00E9495D820E030E04AE71F
:1032900054E40E9416ED0E9494F46B017C010E949C
:1032A0003AD70E940DD98091A31A9091A41AA091A7
:1032B000A51AB091A61AC80ED91EEA1EFB1E0E94BE
:1032C0000CDCDC01CB018C199D09AE09BF09B7FFED
:1032D0009BC80E94A8ABF3CF0E943AD780E00E941F
:1032E000716B0E94336C11E01093F40588E50E9425
:1032F000CCD8E82E89E50E94CCD8082F8AE50E9418
:10330000CCD8F82EE11004C0011104C0182705C064
:10331000011102C010E001C0182F0E94276E111188
:1033200005C0E11003C0002309F440C020E030E0F4
:1033300040EA50E46091EA167091EB168091EC1629
:103340009091ED160E944BF360939B1A70939C1A18
:1033500080939D1A90939E1A2091DA163091DB1675
:103360004091DC165091DD160E9471F518165CF440
:1033700019821A821B821C82BE016F5F7F4F8BE90C
:103380009AE10E94446D111105C0E11003C00111C2
:1033900007C00CC080E090E00E94CBA61123B9F3D7
:1033A00081E090E00E94CBA6111103C0FF2009F438
:1033B000CEC08091F505882321F08091F60581111A
:1033C0001AC0E2EBF2E184918F010F5F1F4F811170
:1033D00003C0EFE2F3E004C00E9417D9F801F3CF75
:1033E00084918F010F5F1F4F882309F4B0C00E94A2
:1033F00017D9F801F5CF0E941ED84090E2165090E0
:10340000E3166090E4167090E51620E030E044E3A7
:1034100053E4C301B2010E944BF34B015C01609382
:10342000931A7093941A8093951A9093961A809198
:10343000E6169091E716A091E816B091E9168CA7D0
:103440009DA7AEA7BFA720E030E044E353E4BC0152
:10345000CD010E944BF36B017C016093971A70932E
:10346000981A8093991A90939A1A8091DA169091EB
:10347000DB16A091DC16B091DD1680939B1A909319
:103480009C1AA0939D1AB0939E1AA3019201C501A4
:10349000B4010E944AF34B015C012FE632E143E89C
:1034A0005AEB0E9471F587FD0AC021E230E044EB3F
:1034B00053E4C501B4010E94B1EC18161CF4E2EB10
:1034C000F2E133C02CA53DA54EA55FA5C701B6010D
:1034D0000E944AF36B017C012FE632E143E85AEB8C
:1034E0000E9471F587FDEBCF21E230E044EB53E41D
:1034F000C701B6010E94B1EC18160CF319821A82AA
:103500001B821C829E012F5F3F4F4AED56E167E907
:103510007AE183E99AE10E94536C82E090E00E9494
:10352000CBA615C00E9417D9F80184918F010F5FB7
:103530001F4F8111F7CFEDE1F3E084918F010F5F11
:103540001F4F882321F00E9417D9F801F6CF0E945F
:103550001ED88091D91B813009F059C080933C025C
:1035600080E090E00E94E7C68091D51B882319F186
:1035700084E090E090937E1580937D1585E08093A4
:10358000711512E81093741584E190E1A0E0B0E0A9
:103590008093751590937615A0937715B093781551
:1035A0000E94566681E09AE590937E1580937D1582
:1035B0008CE090E022C080E190E090937E158093B3
:1035C0007D1585E08093711512E81093741584E1E0
:1035D00090E1A0E0B0E08093751590937615A093EC
:1035E0007715B09378150E94566681E09AE590931E
:1035F0007E1580937D1586E390E0909380158093EF
:103600007F1587E080937115109374152AC085305B
:10361000B1F581E080933C0280E090E00E94E7C633
:103620001092D91B8091D51B882349F081E09AE53F
:1036300090937E1580937D158CE290E008C081E028
:103640009AE590937E1580937D1581E590E09093A7
:10365000801580937F1587E08093711582E88093B1
:10366000741584E890E0A0E0B0E080937515909325
:103670007615A0937715B09378150E9456668091C1
:103680008F05882309F450C018A219A21AA21BA200
:1036900020E030E040EA50E46091DA167091DB16E9
:1036A0008091DC169091DD160E944AF369837A833B
:1036B0008B839C83BE01605E7F4FCE0101960E948A
:1036C000446D87EA9AE10E941D67809178128823F1
:1036D00019F081E08093771281E090E09093681276
:1036E00080936712109271121092721210927312DC
:1036F000109274120E940CDC60936D1270936E1223
:1037000080936F12909370128091670E9091680E63
:10371000A091690EB0916A0E8093691290936A121B
:10372000A0936B12B0936C128091771A8093F4057A
:103730000E94196C0E94C85D8091D91B982F9D7FB3
:10374000943009F07FC090913617992309F478C01E
:103750001092361710923C029091D51B992351F18B
:10376000843069F460918E05862F90E0A0E0B0E08F
:10377000BC01CD01635E7F4F8E4F954A29C08630D4
:1037800009F05EC018A219A21AA21BA219821A82FD
:103790001B821C82BE01605E7F4FCE0101960E949B
:1037A000446D81E09AE590937E1580937D1586E1C6
:1037B00090E02EC0843099F460918E05862F90E0C1
:1037C000A0E0B0E0BC01CD01695B7F4F8E4F954A10
:1037D00024E830E040E050E00E94FA6631C08630D4
:1037E00079F518A219A21AA21BA219821A821B82A9
:1037F0001C82BE01605E7F4FCE0101960E94446D27
:1038000081E09AE590937E1580937D1580E490E0A9
:103810009093801580937F1587E08093711582E8DF
:103820008093741584E890E0A0E0B0E08093751573
:1038300090937615A0937715B09378150E945666ED
:103840001092D91B20E030E040E251E46091D216A2
:103850007091D3168091D4169091D5160E9416EDD2
:103860000E948FF470937E1560937D1505E00093A0
:10387000711512E81093741588E490E1A0E0B0E0AF
:103880008093751590937615A0937715B09378155E
:103890000E94566620E030E040E251E46091D61686
:1038A0007091D7168091D8169091D9160E9416ED76
:1038B0000E948FF470937E1560937D1500937115AF
:1038C000109374158AE490E1A0E0B0E08093751540
:1038D00090937615A0937715B09378150E9456664D
:1038E00020E030E040E251E46091DA167091DB169E
:1038F0008091DC169091DD160E9416ED0E948FF4E7
:1039000070937E1560937D15009371151093741557
:103910008CE490E1A0E0B0E080937515909376156B
:10392000A0937715B09378150E9456669091771200
:1039300080918F05992391F0811110C080913717E4
:1039400081110FC081E08093371780E493E090935A
:103950001511809314110E94C5D703C081111092D4
:103960008F058091D91B813031F40E94716B1092C8
:10397000D91B0C94041280E00E94716B0C94041209
:103980000E94EB560C940412C090D216D090D3161D
:10399000E090D416F090D51688E50E94FBD88111EE
:1039A00008C020E030E0A901C701B6010E944BF336
:1039B00002C00E9495D868A379A38AA39BA3C09054
:1039C000D616D090D716E090D816F090D91689E583
:1039D0000E94FBD8811108C020E030E0A901C70196
:1039E000B6010E944BF302C00E9495D86B017C0186
:1039F00069837A838B839C832091E2163091E3164E
:103A00004091E4165091E51668A179A18AA19BA185
:103A10000E944AF34B015C012FE632E143E85AEB86
:103A20000E9471F587FF02C00C94041221E230E07D
:103A300044EB53E4C501B4010E94B1EC181614F430
:103A40000C9404122091E6163091E7164091E81686
:103A50005091E916C701B6010E944AF36B017C013F
:103A60002FE632E143E85AEB0E9471F587FF02C06E
:103A70000C94041221E230E044EB53E4C701B60198
:103A80000E94B1EC181614F40C9404120C94BC2986
:103A900081E0809398050C94041285E40E94FBD881
:103AA000B82E811102C00E943AD775E6872E72E0C7
:103AB000972EE2EDCE2EE6E1DE2EF4E8EF2EFAE1CF
:103AC000FF2E00E010E0A12C33243394D4018D911B
:103AD0004D010E94FBD8882359F1F60140805180A6
:103AE000628073800E9495D8D6016D937D938D93EB
:103AF0009C9313970330E1F0023011F43092F705F4
:103B0000A30192010E944AF39B01AC01F70160817D
:103B10007181828193810E944BF3D7016D937D93D4
:103B20008D939C931397C8010E94A36EAA24A3941B
:103B30000F5F1F4FB4E0CB0ED11CE4E0EE0EF11C82
:103B40000430110519F6AA2019F00E941ED837C0BA
:103B5000BB20A9F1C090DE16D090DF16E090E016F1
:103B6000F090E1162091BE163091BF164091C0161C
:103B70005091C116C701B6010E9416ED0E947DF555
:103B80006093D3117093D4118093D5119093D61173
:103B9000C701B6010E948FF42FB7F8946093EC1B15
:103BA0007093ED1B8093EE1B9093EF1B2FBF109231
:103BB000C3111092C4111092C5111092C6110E9427
:103BC000C85D0C94041280916002882311F40C9457
:103BD000041289E40E94FBD8082F882321F00E9458
:103BE00065D8162F01C010E08AE40E94FBD8E82EA9
:103BF000882321F00E9465D8F62E01C0F12C002305
:103C000011F0143028F4EE2089F0F3E0FF1570F481
:103C1000E6E5F3E084918F010F5F1F4F882311F4D5
:103C20000C9404120E9417D9F801F4CF0E94276E59
:103C3000002339F12091731A3091741A1203B001E4
:103C4000139F700D112480916F1A9091701A680F54
:103C5000791F072E000C880B990B0E94B7EC20915E
:103C6000E2163091E3164091E4165091E5160E9459
:103C70004BF36093931A7093941A8093951A9093D0
:103C8000961AEE2041F12091751A3091761A4F2D37
:103C90004203B001439F700D11248091711A9091DD
:103CA000721A680F791F072E000C880B990B0E945F
:103CB000B7EC2091E6163091E7164091E816509146
:103CC000E9160E944BF36093971A7093981A8093A9
:103CD000991A90939A1A80E50E94CCD881110E947B
:103CE00086D886E40E94FBD88823D9F00E9495D814
:103CF0006B017C0120E030E0A9010E9471F51816EB
:103D000084F420E030E040E752E4C701B6010E94AD
:103D100027F46093340270933502809336029093B7
:103D200037020E949AAE0C940412809199059091EA
:103D30009A058637910509F48EC60CF0C2C08D3401
:103D4000910509F4F1C30CF058C08A31910509F4CA
:103D500045C24CF58531910509F4E5C184F4823101
:103D6000910509F4A0C58431910509F49AC14197E0
:103D700011F00C9404120E9449AE0C940412873185
:103D8000910509F4DCC10CF4D4C18831910509F422
:103D9000ECC1499711F00C940412109277120E9412
:103DA00010C90C9404128F31910509F4C7C274F440
:103DB0008C31910509F46EC20CF42FC24E9711F0AC
:103DC0000C9404120E94D8630C9404128A32910558
:103DD00009F467C32CF4809709F466C20C940412AA
:103DE0008B34910509F49CC38C34910511F00C942B
:103DF00004120E9410C90C9404128A36910509F429
:103E000018C5BCF58435910509F44DC5ECF482352F
:103E1000910509F43FC50CF041C58135910511F0BC
:103E20000C9404120E94EDC60E943AD70E9438AE4C
:103E300010923B1710923A1768EE73E080E090E022
:103E40000E94B6C20C9404128C35910509F474C515
:103E500034F48535910509F454C50C940412883660
:103E6000910509F465C38936910509F495C40C944C
:103E700004128F36910509F497C384F48C369105AA
:103E800009F437C40CF4F4C48D36910509F4C9C49F
:103E90008E36910509F475C30C940412813791058F
:103EA00009F42FC40CF429C48237910509F4CDC557
:103EB0008337910511F00C9404120E94CF8A0C9460
:103EC00004128C3251E0950711F40C948E270CF0FB
:103ED00066C08B3C910509F46EC6ACF58C38910533
:103EE00009F43CC48CF48837910509F4EFC50CF44F
:103EF000E9C58937910511F00C9404121092F4056C
:103F00001092771A0C9404128E3B910509F48DC41B
:103F100034F48B39910509F45BC40C940412883C89
:103F2000910509F4DAC5893C910511F00C9404124D
:103F300015E6E12E12E0F12E02EA16E182EBC82E20
:103F400086E1D82E1EC6833D910509F4DAC694F4A5
:103F50008D3C910509F4B8C60CF44AC68E3C910517
:103F600011F00C940412A5E6EA2EA2E0FA2E00E06D
:103F700010E0AEC68D3D910509F4D6C634F48C3DF3
:103F8000910509F4C2C60C940412823E910509F40D
:103F9000E7C68831914009F412C70C940412843AA0
:103FA000E1E09E0711F40C941D28ACF5833621E066
:103FB000920709F472C084F48E3241E0940709F448
:103FC000DBC70CF4D5C78F32914011F00C9404126A
:103FD0000E94588B0C9404128139B1E09B0711F4B4
:103FE0000C9413284CF48039914011F00C94041275
:103FF0000E943AD70C940412823921E0920711F4FE
:104000000C9418288A39914011F00C9404120E94E3
:10401000278A0C940412863F41E0940711F40C9413
:10402000FE28FCF48C3AA1E09A0711F40C942128A4
:104030004CF4853A914011F00C9404120E94E788E8
:104040000C940412843FF1E09F0711F40C94FA28B9
:10405000853F914011F00C9404120E94849A0C94B4
:104060000412833533E09307A1F03CF4873F91407D
:1040700011F40C9402290C940412803AA3E09A07DC
:1040800009F44FC1873E934011F40C9458290C94C5
:104090000412E2EBF2E10C941429ECE7F2E10C9447
:1040A0004429E4E8F3E084918F010F5F1F4F8823D8
:1040B00021F00E9417D9F801F6CF10921C1510922A
:1040C0001B1588EA92E10E94ECB38BE1E8EAF2E189
:1040D000DE01159601900D928A95E1F78091A61266
:1040E0009091A7129C838B838DEE92E09A838983B3
:1040F00040E050E0BE016F5F7F4F8BE993E00E948C
:104100002AC9CE0101960E949AA8E5E7F3E08491BE
:104110008F010F5F1F4F882311F40C9404120E942B
:1041200017D9F801F4CF0E9458680E94A2A80C94F5
:10413000041210927712109278120C940412E091EB
:104140009005F09191058081882329F0803209F44F
:1041500010823196F8CF40E061E080919005909117
:1041600091050E9442CB0C94041268EF7EE088EA2D
:1041700092E10E94A4D2811103C0EAEAF3E00FC0E9
:10418000E8E9F3E084918F010F5F1F4F811103C0B5
:10419000E5E9F3E00EC00E9417D9F801F3CF84914E
:1041A0008F010F5F1F4F882399F30E9417D9F801E1
:1041B000F6CF84918F010F5F1F4F882321F00E945B
:1041C00017D9F801F6CF80917812882319F081E091
:1041D000809377120E94B8C80C94041280917812D0
:1041E000882311F40C94041283E50E94FBD88823E1
:1041F00011F40C9404120E9465D8AB01BC014093E9
:10420000121550931315609314157093151582E4CD
:1042100094E10E9480D00C94041280917812811154
:1042200003C0E1EDF3E02AC0EFEBF3E084918F01EE
:104230000F5F1F4F882321F00E9417D9F801F6CF96
:1042400060911215709113158091141590911515A8
:104250004AE00E941ED98FE20E9417D960910E1584
:1042600070910F1580911015909111154AE00E94E0
:104270001ED98AE00E9417D90C94041284918F01F0
:104280000F5F1F4F882311F40C9404120E9417D95A
:10429000F801F4CF40E060E08091900590919105A5
:1042A0000E9442CB0C9404128091771281110E94DB
:1042B0003AD7E0909005F090910580E50E94CCD827
:1042C000182F882319F00E9486D8182F8091781211
:1042D000882311F40C940412412F61E0C7010E945D
:1042E00042CB83E50E94FBD8882381F00E9465D8E9
:1042F000AB01BC0140931215509313156093141534
:104300007093151582E494E10E9480D08091781218
:10431000882319F081E08093771211110C94041214
:1043200059CF809190059091910521E020937612CC
:1043300040E060E00E9442CB0C9404120E949E6A0E
:104340007B018C0120E831E541E050E00E94EDF274
:10435000C9016DE671E00E9424F64B015C01C801C1
:10436000B70120E13EE040E050E00E94EDF2CA01DA
:10437000B90128E130E040E050E00E94EDF2762EF5
:10438000672EC62ED72E6CE3262E312C412C512CB5
:10439000C801B701A20191010E94EDF2F62EE72EAD
:1043A000CA01B901A20191010E94EDF2CB018E0177
:1043B0000F5F1F4F81149104D1F0EF92FF927F9312
:1043C0006F936F927F92BF92AF929F928F928AE08B
:1043D00094E09F938F931F930F930E9483EC0FB6EB
:1043E000F894DEBF0FBECDBFE2EBF2E145C0A114F1
:1043F000B10489F0EF92FF927F936F936F927F9257
:10440000BF92AF928AEF93E09F938F931F930F9386
:104410000E9483ECE4CFCD2879F0EF92FF927F9356
:104420006F936F927F928EEE93E09F938F931F9383
:104430000F930E9483ECD3CF892B69F0EF92FF9208
:104440007F936F9386EE93E09F938F931F930F93C9
:104450000E9483ECC4CFEF92FF9282EE93E09F9391
:104460008F931F930F930E9483EC0F900F900F90E8
:104470000F900F900F90B8CF84917F019FEFE91AB2
:10448000F90A882321F00E9417D9F701F5CFB80166
:104490008EE194E00E94AD538AE00E9417D90C94FB
:1044A000041283E50E94FBD8882311F40C940412B3
:1044B0000E9475D8E82E80E50E94FBD8882311F46D
:1044C0000C9404120E9465D8162FC62ED72ED7FE44
:1044D00002C00C940412E8EEF4E08491181303C0B7
:1044E000ECE7F2E109C03196A5E0E031FA07A9F75F
:1044F0009AC70E9417D9F80184918F010F5F1F4F4F
:104500008111F7CFEBE2F4E084918F010F5F1F4F31
:10451000882311F40C9404120E9417D9F801F4CFE7
:104520000E94B8C80C9404120E943D660C940412B8
:1045300088E690E00E94356F81110C9404128091FE
:10454000911683FF02C00C94041283E50E94FBD8ED
:10455000882399F00E9495D80E948FF4CB010E9485
:10456000E7C60E9495D820E030E04AEA52E40E9473
:10457000B1EC181614F00E943D660E94CF720C94A4
:1045800004128EE40E94FBD8882311F40C940412C8
:104590000E9465D860934B1B70934C1B80934D1BFE
:1045A00090934E1B0C94041283E50E94CCD8882370
:1045B00059F083E50E94FBD8882319F00E9475D832
:1045C00001C080E080939116E2EBF2E184918F01CB
:1045D0000F5F1F4F811103C0E8E4F4E004C00E94A4
:1045E00017D9F801F3CF84918F010F5F1F4F8823F4
:1045F00021F00E9417D9F801F6CF80919116811110
:1046000003C0E4E4F4E034C05AE3C52E54E0D52EF0
:10461000E12CF12C20E08091911690E00E2C02C04C
:10462000959587950A94E2F780FF17C0BB24B39451
:10463000B20E222319F08CE20E9417D9F60185915F
:104640009491FC0184918F010F5F1F4F882321F00B
:104650000E9417D9F801F6CF2B2DBFEFEB1AFB0AFA
:10466000E2E0CE0ED11CF5E0EF16F104A1F63CC05D
:1046700084918F010F5F1F4F8823B1F10E9417D9DA
:10468000F801F6CF8AE50E94CCD8882309F4ECC55E
:104690000E9495D86B017C0120E030E040EA51ECAB
:1046A0000E9471F587FDD3C520E030E040EA51E477
:1046B000C701B6010E94B1EC18160CF4C8C5C0922F
:1046C0002E17D0922F17E0923017F09231170E94D8
:1046D000239260912E1770912F178091301790912F
:1046E000311742E00E94A3D98AE00E9417D90C94A6
:1046F000041210923D020C9404128FE494E00E9484
:10470000BEA883E50E94FBD8811103C0E2EBF2E171
:104710000DC00E9475D8809355028D3310F40C940F
:1047200004128CE3809355020C94041284918F013F
:104730000F5F1F4F882321F00E9417D9F801F6CF91
:104740004091550250E060E070E088E594E00E94FE
:104750005A538AE00E9417D90C9404128091911642
:1047600083FF02C00C94041283E50E94FBD88823C7
:1047700011F40C9404120E9495D80E948FF46E37A5
:10478000710514F06DE770E07093210660932006C8
:104790000E944FC60C94041289E690E00E94356F87
:1047A000811111C0EFE5F4E084918F010F5F1F4F7D
:1047B000882321F00E9417D9F801F6CF0E94875E66
:1047C0008AE00E9417D91092581B1092571B9DC661
:1047D00083E50E94FBD8882311F40C9404120E94F4
:1047E00075D880935D1B8D3318F08CE380935D1B2F
:1047F0000E940CDC6B017C0120915D1B30E0A8EE77
:10480000B3E00E943BF3C60ED71EE81EF91EC0920D
:10481000591BD0925A1BE0925B1BF0925C1B0C94CC
:1048200004120E9443610C9404120E940A5F0C94CB
:10483000041283E50E94FBD8882339F00E9465D8D2
:104840008B016F3F710519F010F00FEF10E080E55C
:104850000E94FBD8811106C010933B1700933A17B2
:104860000C9404120E9475D881110C940412F4CF98
:1048700080E50E94FBD8811106C010923B17109270
:104880003A170C9404120E9465D8672B11F00C940F
:104890000412F3CF109297050C94041281E08093D8
:1048A00097050C94041283E50E94FBD88823A1F09D
:1048B0000E9495D820E030E04AE754E40E9416EDCB
:1048C0000E9494F4609356027093570280935802AA
:1048D000909359020C94041288E50E94CCD881115F
:1048E000BBC589E50E94CCD88111B6C58AE50E9476
:1048F000CCD88111B1C585E40E94CCD88111ACC55A
:10490000D6C583E50E94CCD8882311F40C940412F8
:104910000E9495D820E030E04AE754E40E9416ED6A
:104920000E9494F46093601B7093611B8093621BE0
:104930009093631B0C94041235E6C32E32E0D32E01
:1049400042EBE42E46E1F42E10E0D6018D916D018C
:104950000E94CCD8882309F46DC0133009F063C0DD
:104960000E9495D84B015C0120E030E040EA51E420
:104970000E94B1EC87FF4EC0A50194016091BE1664
:104980007091BF168091C0169091C1160E9427F4B5
:104990002B013C019B01AC01609161167091621684
:1049A00080916316909164160E9416ED60936116D3
:1049B000709362168093631690936416A30192011C
:1049C00060917D1670917E1680917F169091801671
:1049D0000E9416ED60937D1670937E1680937F166D
:1049E0009093801660919E1670919F168091A016EC
:1049F0009091A1160E94B5ECA30192010E9416EDC0
:104A00000E9494F460939E1670939F168093A01654
:104A10009093A1168092BE169092BF16A092C016D7
:104A2000B092C11607C00E9495D8F70160837183C8
:104A3000828393831F5FF4E0EF0EF11C143009F0C2
:104A400084CF0E940B820C9404120E943AD70E94D9
:104A5000C85D0C94041285E40E94CCD8882381F0B0
:104A60000E9486D8882361F0E2EBF2E184918F0105
:104A70000F5F1F4F882321F00E9417D9F801F6CF4E
:104A800081E40E94CCD8882381F00E9486D88823B4
:104A900061F0E2E6F4E084918F010F5F1F4F8823FD
:104AA00021F00E9417D9F801F6CF009190051091DE
:104AB0009105D8018D918D01882309F415CE0E94AE
:104AC00017D9F7CF0E94ED840C94041281E08093F3
:104AD000F4058093771A0C94041288EC90E00E94FD
:104AE000356F81110C94041284E40E94CCD8882381
:104AF00009F443C00E9495D86B017C0111E020E0CD
:104B000030E0A9010E94B1EC811101C010E01093C6
:104B1000CF1620E030E0A901C701B6010E94B1EC38
:104B2000882359F10091920510E00E9495D8000F5A
:104B3000111F000F111FF801E553F94E60837183B7
:104B40008283938320E030E0A9016091CB167091BD
:104B5000CC168091CD169091CE160E94B1EC8111A9
:104B60000CC080E090E0A0EEBFE38093CB16909362
:104B7000CC16A093CD16B093CE160E9455AE0C94D1
:104B80000412F70181917F010E94CCD8882351F053
:104B90000E9495D80E9494F4D8016D937D938D93D3
:104BA0009C9313970C5F1F4FC016D10651F70E94BC
:104BB000FF720C940412B5E6EB2EB2E0FB2E01E777
:104BC00016E1F70181917F010E94CCD8882341F042
:104BD0000E9495D8D8016D937D938D939C931397E4
:104BE0000C5F1F4FB6E101381B0759F70C940412F4
:104BF00083E50E94CCD88823D9F00E9495D8AB01D8
:104C0000BC014093691650936A1660936B167093BB
:104C10006C164093651650936616609367167093F2
:104C2000681680EC94E00E9477538AE00E9417D9BE
:104C300080E50E94CCD8882399F00E9495D8AB01DA
:104C4000BC014093691650936A1660936B1670937B
:104C50006C1683EA94E00E9477538AE00E9417D989
:104C600082E50E94CCD8882399F00E9495D8AB01A8
:104C7000BC0140936D1650936E1660936F1670933F
:104C8000701684E894E00E9477538AE00E9417D956
:104C900084E50E94CCD8882311F40C9404120E945D
:104CA00095D8AB01BC01409365165093661660938E
:104CB00067167093681686E694E00E9477538AE040
:104CC0000E9417D90C9404120E94578A0C94041263
:104CD000F70181917F010E94CCD8882339F00E948E
:104CE00095D8AB01BC01C8010E94F96E0F5F1F4F40
:104CF0000330110569F70E941ED80E94C85D0C940C
:104D000004120E94EF8F0C94041283E50E94FBD8DA
:104D1000882311F40C9404120E9465D870930C023D
:104D200060930B020C9404128DED90E00E94356F9D
:104D300081110C94041283E50E94FBD8882311F49E
:104D40000C9404120091920510E00E9465D8000FA7
:104D5000111FF801EF5DFD4F718360830C94041205
:104D600080E50E94CCD8882311F40C9404120E9490
:104D700065D8F62EC62ED72E83E50E94FBD8882351
:104D800021F00E9465D88B0102C00FEF1FEFC80110
:104D90000196039710F00C940412D7FE02C00C94F5
:104DA0000412E8EEF4E080E195E02491F21611F4AB
:104DB0000C94041231968E179F07B9F77EC380E5D5
:104DC0000E94CCD8882311F40C9404120E9465D858
:104DD0006B017C018B01672B19F0ECE7F2E181C0DC
:104DE00083E50E94CCD8811103C0E2EBF2E108C058
:104DF0000E9465D886E492E10E9423520C9404122A
:104E000084917F012FEFE21AF20A882321F00E9499
:104E100017D9F701F5CF60E070E089E295E00E94D4
:104E200094538091481228E532E06901C81AD108EC
:104E300087FDD394CC0CDD1CCC0CDD1C0D2C000CA0
:104E4000EE08FF088091471228E830E04901881AEF
:104E5000910887FD9394880C991C880C991C092C47
:104E6000000CAA08BB08809146128F3FB9F090E071
:104E7000FC01EE0FFF1F8E0F9F1FFC01E752FE4E3D
:104E80000181128153E0000F111F5A95E1F764E090
:104E9000169507956A95E1F70E5F1F4F98012F5FF2
:104EA0003F4FC901330FAA0BBB0B9C01AD01281961
:104EB00039094A095B09A4EBB0E00E942BF3A70172
:104EC0009601281939094A095B090E940FF3B901B3
:104ED00086E295E00E9494538AE00E9417D90C94D0
:104EE000041284918F010F5F1F4F882321F00E94CD
:104EF00017D9F801F6CFB6018FE195E00E949453DF
:104F0000E0E1F5E084918F010F5F1F4F882311F4DA
:104F10000C9404120E9417D9F801F4CF83E50E9483
:104F2000FBD8882319F00E9465D802C064E071E0C4
:104F300079A368A380E50E94FBD8882339F00E94FA
:104F400065D8693833E1730730F402C068EE73E066
:104F50007A83698304C088E893E19A838983BE01D8
:104F6000605E7F4FCE0101960E94E0940C94041283
:104F70000E94518F0C94041283E50E94CCD8182F04
:104F8000882371F00E9495D80E948FF470931302C9
:104F90006093120221E0672B09F020E02093C10703
:104FA00080E50E94CCD8882361F0209112023091D4
:104FB0001302232B11F00E9486D88093C1070C9412
:104FC000041211110C940412E2EBF2E184918F01AE
:104FD0000F5F1F4F882321F00E9417D9F801F6CFE9
:104FE0008091C107882319F068E374E002C069E585
:104FF00073E086E495E00E94AD53609112027091D7
:10500000130285E395E00E949453E1E3F5E0849177
:105010008F010F5F1F4F882311F40C9404120E941C
:1050200017D9F801F4CF81E00E949B6D0C94041213
:1050300080E00E949B6D0C9404120E947D890C9468
:10504000041240E95AE15DA74CA782EE882E86E162
:10505000982E92EDA92E96E1B92E28E7C22E2AE1CC
:10506000D22E3FE3232E32E0332E0BE91DE1E12C5B
:10507000F12CACA5BDA58D91BDA7ACA7882309F4E3
:1050800081C0F5014080518062807380D1012D91F3
:105090003D914D915C91F601608171818281938196
:1050A0000E944BF320E030E040E05FE30E9416ED09
:1050B0009B01AC01C301B2010E9471F5181654F4B2
:1050C000F80185919591A591B49188AB98AFACAB5F
:1050D000BCAF04C018AA18AE1CAA1CAED4012D91F6
:1050E0003D914D915C91C301B2010E944AF39B0135
:1050F000AC0168A978AD8CA99CAD0E944AF32B0144
:105100003C0120E030E040EA51EC0E9471F587FD5F
:105110000AC020E030E040EA51E4C301B2010E943D
:10512000B1EC18161CF4ECE7F2E109C0B301A201DE
:10513000C7010E94F96E26C00E9417D9F801849118
:105140008F010F5F1F4F8111F7CFE9E5F5E08491E3
:105150008F010F5F1F4F882321F00E9417D9F8019C
:10516000F6CF88E290E09A83898388EC90E099A357
:1051700088A3BE016F5F7F4FCE0180960E94E094AE
:105180000C940412BFEFEB1AFB0AE4E08E0E911CA4
:10519000F4E0AF0EB11C24E0C20ED11C34E0230EAB
:1051A000311C0C5F1F4F43E0E416F10409F061CF9E
:1051B0000E941ED80E94C85D83E992E099A388A34B
:1051C00004E610E01A830983BE01605E7F4FCE01C2
:1051D00001960E94E0948AEB92E099A388A31A8337
:1051E0000983BE01605E7F4FCE0101960E94E0946C
:1051F0000C9404120E94869F0C9404120E948199C0
:105200000C94041283E50E94CCD8882319F00E94E4
:1052100086D801C081E091E089270E944F850C94D7
:1052200004120E9417D9F80184918F010F5F1F4F5C
:105230008111F7CFE0EAF5E084918F010F5F1F4FF6
:10524000882309F41FCA0E9417D9F801F5CFE9E8AD
:10525000F5E084918F010F5F1F4F882309F444CA42
:105260000E9417D9F801F5CF40912E1750912F17B2
:10527000609130177091311787E795E00E9477535E
:1052800033CA0E9417D9F80184918F010F5F1F4F15
:105290008111F7CFEAEAF5E084918F010F5F1F4F8C
:1052A000882311F40C9404120E9417D9F801F4CF4A
:1052B00081E08093600283E50E94CCD8811104C014
:1052C0000E94F7B10C9404120E9486D881110C94AC
:1052D0000412F6CFF0909905FF2021F1E2EBF2E104
:1052E00084918F010F5F1F4F882321F00E9417D9EF
:1052F000F801F6CF84E50E9417D96F2D70E080E0A9
:1053000090E04AE00E941ED980E20E9417D90DE584
:1053100013E0D8018D918D01882309F4E5C90E941D
:1053200017D9F7CF10929305E2EBF2E184918F0148
:105330000F5F1F4F882321F00E9417D9F801F6CF85
:1053400060E070E089EB95E00E9494538AE00E944F
:1053500017D90C9404124091900550919105452B5A
:1053600039F4AF0141505109509391054093900594
:1053700040E050E00C94911280E00E94716B0E941A
:10538000336C83E50E94CCD8882309F44AC00E947C
:1053900086D821E0482FBE016F5F7F4FCE018096F7
:1053A0000E941E936B017C019B01AC010E94F9F5E8
:1053B000811131C02CEA35EC47E257E368A179A1AD
:1053C0008AA19BA10E944BF3AB01BC018EE493E048
:1053D0000E9477532CEA35EC47E257E369817A81E2
:1053E0008B819C810E944BF3AB01BC0189E493E06B
:1053F0000E9477532CEA35EC47E257E3C701B60128
:105400000E944BF3AB01BC0184E493E00E9477530C
:105410008AE00E9417D90E94196C0E94C85D0C9402
:10542000041281E0B6CF61E0812F0E94D0DA6E2DA8
:10543000812F0E943D95F12CB701812F0E940CDB3A
:10544000B9E0CB16D10411F00C940412F0923B1782
:10545000E0923A170C9404120E943AD788E50E9411
:10546000CCD8882319F05F9A1092F50589E50E943F
:10547000CCD8882319F08A9A1092F6058AE50E9402
:10548000CCD8882351F09FB7F894809108018160AF
:10549000809308019FBF1092F70585E40E94CCD845
:1054A000882311F40C940412129A0C9404120E9492
:1054B0003AD70E9438AE0C9404120E943AD760E0AA
:1054C0008F2D0E94D0DA0F3FEFEF1E0759F48F2D7A
:1054D0000E94149531E020E0892B09F030E0032F81
:1054E000122F05C00130110569F401E010E08F2D85
:1054F0000E9414958017910711F40C9404120E94D5
:10550000A8ABF5CF00E010E0F2CFC15ADF4F0FB6E5
:10551000F894DEBF0FBECDBFDF91CF911F910F91E9
:10552000FF90EF90DF90CF90BF90AF909F908F90C3
:105530007F906F905F904F903F902F9008952F92A3
:105540003F924F925F926F927F928F929F92AF9213
:10555000BF92CF92DF92EF92FF920F931F93CF9360
:10556000DF93CDB7DEB7C254D1090FB6F894DEBFD2
:105570000FBECDBF0E9438978091D71B823009F0B3
:10558000ABC080917712882309F4A6C06499A4C0A7
:105590008091D81B8F5F8093D81B65E070E080E01E
:1055A00090E00E94D4DB8091D81B83330CF494C02C
:1055B0008091D51B882349F081E09AE590937E1570
:1055C00080937D1586E590E008C081E09AE5909390
:1055D0007E1580937D1587E590E0909380158093EC
:1055E0007F1587E08093711582E88093741584E8B5
:1055F00090E0A0E0B0E08093751590937615A093AD
:105600007715B09378150E94566685E08093D91B74
:105610008091DA169091DB16A091DC16B091DD1620
:105620008093EA059093EB05A093EC05B093ED050C
:1056300020E030E040E251E46091DE167091DF1628
:105640008091E0169091E1160E944AF36093E6057E
:105650007093E7058093E8059093E905109277121F
:105660000E9410C98091E4059091E505892B41F4D1
:1056700080912206909123069093E5058093E4059E
:105680008091AD059091AE05892B41F48091200663
:10569000909121069093AE058093AD05109221065E
:1056A000109220060E944FC681E08093DC15109274
:1056B000D81B1092D71B84E08093391710923517AE
:1056C0001092F91B1092F81B8EE597E0909315113C
:1056D000809314110E94C5D70E9485B991ECA92E20
:1056E00095E1B92E2AE1722E86E191E10E9479C1FD
:1056F0008090AF059090B0051816190634F42AE191
:105700008216910414F40C94D2491814190414F05C
:105710000C94FD49909122158091C115981322C0D7
:10572000909123158091C21598131CC023E0821616
:105730009104C4F09091C315909321158091C415E4
:10574000809324159330D9F4982F9D7F9038B9F425
:105750009091C5159F3409F05BC09091C6159B349C
:1057600009F056C08AE1E1ECF5E1DF011D928A956E
:10577000E9F71092B0051092AF050C94FD498338FB
:1057800009F046C08091C5159091C61598278927C4
:105790009827A0E0B0E08093251590932615A0935C
:1057A0002715B09328154091C71550E060E070E0D0
:1057B0004093291550932A1560932B1570932C153F
:1057C00088EC682E85E1782E80E090E0DC0184177B
:1057D0009507A607B70708F049C09C01359527959E
:1057E000F901EE0FFF1F9F01235D3A4E5901F301AE
:1057F000208130E0322F222791802929F501318341
:1058000020830296A11DB11DF2E06F0E711CDFCF47
:10581000813861F58091C51590E0A0E0B0E08093FB
:10582000251590932615A0932715B09328158091E0
:10583000C615482F50E060E070E040932915509362
:105840002A1560932B1570932C15A7ECB5E1EDE2AA
:10585000F5E190E020E030E02817390739F04D916C
:1058600050E0419351932F5F3F4FF6CF8AE1E1EC37
:10587000F5E1DF011D928A95E9F71092B0051092CB
:10588000AF058091D91B181614F40C94C4494091AB
:105890002515509126156091271570912815A9E6B8
:1058A000B2E0E0E0F0E08D909D90AD90BD9081146D
:1058B0009104A104B104B1F184169506A606B706B9
:1058C00079F5DB01CA0188509041A109B10905971A
:1058D000A105B10550F1DB01CA01877F82339041F8
:1058E000A105B10529F1443330E153076105710584
:1058F000F9F0DB01CA0186549041A109B10907976B
:10590000A105B105C0F0DB01CA0184559041A10990
:10591000B1090597A105B10580F4E2E1F0E00DC001
:105920003196C1CFEFEFFFEF08C0E3E0F0E005C034
:10593000E8E0F0E002C0EFE0F0E0DB01CA018A50ED
:105940009042A109B109833D9105A105B10510F46B
:105950000C949746EF3F8FEFF80711F40C94C4496D
:10596000EA31F10510F00C94C4498827EE58FF4F36
:105970008F4F0C944BF680912D1590912E15813000
:10598000910509F052C010923C0281E080933E17CD
:105990008FEF809342170E9438978091D51B882300
:1059A00011F181E09AE590937E1580937D1582E058
:1059B00090E09093801580937F1587E08093711518
:1059C00082E88093741584E890E0A0E0B0E08093D2
:1059D000751590937615A0937715B09378150E945E
:1059E00056660C94C44981E09AE590937E158093A5
:1059F0007D158EE290E09093801580937F1587E06F
:105A00008093711582E88093741584E890E0A0E09B
:105A1000B0E08093751590937615A0937715B093A9
:105A200078150E9456660C94C4498230910509F09D
:105A3000F7C081E080933C02109235170E94278ABC
:105A40008BE090E090937E1580937D1505E00093A8
:105A5000711512E81093741580E092E1A0E0B0E0B7
:105A60008093751590937615A0937715B09378155C
:105A70000E94566610927E1510927D150093711546
:105A8000109374158EE090E1A0E0B0E0809375155E
:105A900090937615A0937715B09378150E9456666B
:105AA00010927E1510927D15009371151093741548
:105AB0008FE090E1A0E0B0E08093751590937615AB
:105AC000A0937715B09378150E94566610927E15B4
:105AD00010927D15009371151093741586E190E175
